{
  "contractName": "Hello_mshk_top",
  "abi": [
    {
      "constant": true,
      "inputs": [],
      "name": "say",
      "outputs": [
        {
          "name": "",
          "type": "string"
        }
      ],
      "payable": false,
      "stateMutability": "pure",
      "type": "function"
    },
    {
      "constant": true,
      "inputs": [
        {
          "name": "name",
          "type": "string"
        }
      ],
      "name": "print",
      "outputs": [
        {
          "name": "",
          "type": "string"
        }
      ],
      "payable": false,
      "stateMutability": "pure",
      "type": "function"
    }
  ],
  "bytecode": "0x6060604052341561000f57600080fd5b6102488061001e6000396000f30060606040526004361061004c576000357c0100000000000000000000000000000000000000000000000000000000900463ffffffff16806311114af114610051578063954ab4b214610127575b600080fd5b341561005c57600080fd5b6100ac600480803590602001908201803590602001908080601f016020809104026020016040519081016040528093929190818152602001838380828437820191505050505050919050506101b5565b6040518080602001828103825283818151815260200191508051906020019080838360005b838110156100ec5780820151818401526020810190506100d1565b50505050905090810190601f1680156101195780820380516001836020036101000a031916815260200191505b509250505060405180910390f35b341561013257600080fd5b61013a6101c5565b6040518080602001828103825283818151815260200191508051906020019080838360005b8381101561017a57808201518184015260208101905061015f565b50505050905090810190601f1680156101a75780820380516001836020036101000a031916815260200191505b509250505060405180910390f35b6101bd610208565b819050919050565b6101cd610208565b6040805190810160405280600e81526020017f48656c6c6f206d73686b2e746f70000000000000000000000000000000000000815250905090565b6020604051908101604052806000815250905600a165627a7a723058205b2273e6aa5b87565e28e1744187546b0ba63fe00657ce359675fab5e4ba7ddb0029",
  "source": "pragma solidity ^0.4.17;\n\ncontract Hello_mshk_top {\n\n  //say hello mshk.top\n  function say() public pure returns (string) {\n    return \"Hello mshk.top\";\n  }\n\n  //print name\n  function print(string name) public pure returns (string) {\n    return name;\n  }\n}",
  "sourcePath": "/Users/geo/Documents/solidity/hwdemo/contracts/Hello_mshk_top.sol",
  "compiler": {
    "name": "solc",
    "version": "0.4.19+commit.c4cbbb05.Emscripten.clang"
  },
  "schemaVersion": "1.0.1",
  "updatedAt": "2018-02-20T03:55:51.384Z"
}